:020000040800F2
:10000000A00E00209D0100085D2C00085517000877
:100010001D2C000879050008298600080000000052
:10002000000000000000000000000000535D000818
:10003000A909000800000000AB320008015F0008B9
:10004000B7010008B7010008B7010008B7010008B0
:10005000B7010008B7010008B7010008B7010008A0
:10006000B7010008B7010008B7010008B701000890
:10007000B7010008B7010008B7010008B701000880
:10008000B7010008B7010008E3020008B701000843
:10009000B7010008B7010008B7010008B701000860
:1000A000E960000829610008B7010008B7010008ED
:1000B00041610008B7010008B7010008B701000856
:1000C000B7010008B7010008B7010008B701000830
:1000D000B7010008B701000809810008B70100084E
:1000E000B7010008B7010008B7010008B701000810
:1000F000B7010008B7010008B7010008F9020008BD
:10010000000000000000000000000000B70100082F
:10011000B7010008B7010008B7010008B7010008DF
:10012000B7010008B7010008B7010008B7010008CF
:10013000B7010008FB0200080000000000000000FA
:10014000B7010008B7010008B7010008000000006F
:10015000000000000000000000000000000000009F
:100160000000000000000000B7010008B70100080F
:10017000B7010008000000000000000000000000BF
:1001800000000000B7010008DFF80CD000F06CF8A8
:1001900000480047ED860008A00E00200648804772
:1001A00006480047FEE7FEE7FEE7FEE7FEE7FEE75C
:1001B000FEE7FEE7FEE7FEE70D5F000889010008A5
:1001C00040EA01039B0703D009E008C9121F08C0D9
:1001D000042AFAD203E011F8013B00F8013B521E59
:1001E000F9D27047D2B201E000F8012B491EFBD2D0
:1001F00070470022F6E710B513460A460446194632
:10020000FFF7F0FF204610BD10B500F0004420F0CD
:100210000040C20DC0F3160040F400007F2A02DA4D
:100220000020014610BD0021962A03DCC2F196028F
:10023000D04002E0963A00F008F8002CF2D00023FB
:10024000D0EB030063EB010110BD202A04DB203A50
:1002500000FA02F1002070479140C2F1200320FA19
:1002600003F3194390407047064C074D06E0E068E1
:1002700040F0010394E8070098471034AC42F6D3ED
:10028000FFF786FF6C9800088C98000870B58C18F2
:1002900010F8015B15F0070301D110F8013B2A119A
:1002A00006D110F8012B03E010F8016B01F8016B87
:1002B0005B1EF9D12B0705D40023521E0DD401F883
:1002C000013BFAE710F8013BCB1A921C03E013F84C
:1002D000015B01F8015B521EF9D5A142D8D3002081
:1002E00070BD10B540204FF0A041086006F0C2FA82
:1002F000044606F027FC10BD704770470160704748
:1003000021B1826842F00102826003E0826842F01B
:10031000020282607047000010B50022B0F1A04FC9
:1003200002D0124B984204D1114B1A68114B1A405B
:1003300003E0114B1A680F4B1A40D1E900342343F4
:100340008C682343CC6843EA04330C7C43EA0423DF
:100350001A43B0F1A04F02D0044B984202D1044B93
:100360001A6001E0044B1A6010BD0000000100504B
:1003700008030050E010FCFF080700500021016056
:1003800041608160C16001747047000010B504468F
:10039000B4F1A04F02D00E48844209D101210807D0
:1003A00004F066FD00214FF0805004F061FD0EE086
:1003B0000848844202D00848844208D101214807F5
:1003C00004F056FD00214FF0005004F051FD10BD27
:1003D00000010050000400500005005001460020BC
:1003E0008A6802F000420AB1012000E00020704754
:1003F0000246002013680B400BB1012000E00020F2
:1004000070471AB143680B43436002E043688B4373
:100410004360704710B502460020D0680C4B18406E
:10042000D1E9003423438C682343CC6823430C690F
:1004300023434C6923438C6923431843D060106BDA
:1004400020F00F000B7F5B1E1843106310BD0000EF
:1004500007C0FFFD30B50023092913DDA1F10A040F
:1004600004EB4405072404FA05F384699C43846182
:100470008469A1F10A0505EB450502FA05F52C434F
:1004800084610FE04C1E04EB4405382404FA05F3A4
:1004900044699C434461446901EB410502FA05F556
:1004A0002C43446130BD21B1C26842F48012C26065
:1004B00003E0C26822F48012C2607047826822F0B2
:1004C0008042826082680A438260704721B1C268BC
:1004D00042F40012C26003E0C26822F40012C2605B
:1004E0007047816841F000418160704700210160E0
:1004F00041608160C16001614161816101210177D9
:100500007047826822F04052826021B1826842F0D6
:100510008052826003E0826842F00052826070473D
:1005200070B504460D4605480021016041608160B8
:10053000C1602946204602F0A1FA70BD38050020AE
:1005400010B505F029FE01F057F902F0FBF910BDD6
:1005500010B505F035FE10BD2DE9F04104460D46FD
:1005600060194FEAE07807463846414605F002FC3C
:1005700006463046BDE8F08100BFFEE70549024669
:100580000878002803BF044801230B700020026094
:10059000704700004C0100205001002041B1094A81
:1005A0000244D26942F00102064B0344DA6107E0DB
:1005B000044A0244D26922F00102024B0344DA6188
:1005C000704700000000014010B500220B4B0344AF
:1005D000DA6902F00302D1E9003423438C68234333
:1005E0000C692343CC6823434C6923438C69234320
:1005F0001A43024B0344DA6110BD000000000140C1
:1006000004490144C96941F00041024A0244D161F0
:1006100070470000000001400849097801290BDA01
:1006200006490A780978491C044B197002EBC2018B
:10063000034A02EB810000E000207047A500002083
:100640002C04002070B504460D4616463DB136B167
:100650002561A6820021E182204600F01CF870BDD1
:100660000021016100228282C282704700228261E1
:100670008283C283704770B504460D4616463DB16D
:1006800036B1A561A6830021E183204600F009F878
:1006900070BD0162704710B5044620466168884706
:1006A00010BD10B504462046A168884710BD10B59E
:1006B000014600200022A1B10C781444A2B24C786B
:1006C0001444A2B2002305E08C1CE45C1444A2B2E2
:1006D0005C1CE3B24C789C42F6DCD0B200EB2224E6
:1006E000E0B210BD10B40246084612680FFA81FC51
:1006F0001CFB0CF40B1413FB0341148864438C4261
:1007000024BF10BC704792F8B040C4EB1161C9B26D
:1007100002EB41014A8810BC0CFB02F14FEAE17C7C
:1007200001EB5C41C91361F30F0003FB02F1CA172F
:1007300001EB5241C91361F31F40704710B52AB154
:10074000036801248C402343036004E00368012410
:100750008C40A343036010BD2DE9F0410446606C5A
:1007600085682888012813D1606C067831462046B8
:1007700006F06AFA00F500401FFA80F842460421AC
:10078000104800F0D1F8012200210E4800F0ECF8EA
:100790006888012813D1606C47783946204606F0F6
:1007A00053FA00F500401FFA80F84246042105483C
:1007B00000F0C6F801221021024800F0D5F8BDE88B
:1007C000F0810000007400402DE9F04107460E461C
:1007D000384607F061F904461048007858B90F48C8
:1007E00001780078401C0D4A107001EB41000C4963
:1007F00001EB800500E00025AE606564094860609B
:100800000948A0600948E060094820610948606122
:100810000948A0612046BDE8F0810000AD0000203D
:10082000280500207D08000859070008590900081C
:100830003D0800085F090008450800080246506CA2
:10084000405C70470246506C801C30F911007047C4
:1008500070B500230024036840F6FE758D40AB435D
:10086000D2E90056354396683543D66845EA060412
:1008700004FA01F52B43036070BD000030B587B06A
:100880000546686C84680121480704F001FB3C20A0
:100890000190002002900220049000200390208804
:1008A00001281CD101AA00211E48FFF7D1FF012217
:1008B00000211C48FFF742FF05A800F030FB102084
:1008C000059003208DF8180000208DF81B000320F0
:1008D0008DF8190005A94FF0904000F0A0FA60884B
:1008E00001281CD101AA10210E48FFF7B1FF0122F7
:1008F00010210C48FFF722FF05A800F010FB202074
:10090000059003208DF8180000208DF81B000320AF
:100910008DF8190005A94FF0904000F080FA07B05B
:1009200030BD00000074004018B500230093009013
:1009300001F10803009C23440093009B1A6018BD3A
:1009400018B500230093009001F11403009C234488
:100950000093009B1A6018BD436C5A547047436C57
:100960009B1C23F81120704730B532B143680D0944
:100970000124AC402343436005E043680D09012492
:10098000AC40A343436030BD29B1064AD26802435C
:10099000044BDA6004E0034AD2688243014BDA6018
:1009A00070470000002004E070470146002903DA88
:1009B00048424010404200E048107047024A52F856
:1009C00020000268104700007405002070B504463E
:1009D0000D461646044951F8240051F824103246B9
:1009E0000B682946984770BDA800002070B50446E2
:1009F00025460421A5F82411284600F0CFF970BD42
:100A000070B504460D462646F56031462846FFF788
:100A100040FE304600F0CBF9304600F0BFF970BD23
:100A200010B504460E48007801280DDA0C4801780C
:100A30000078401C0A4A1070C1EB011000EB8000E6
:100A4000084901EB800300E00023184600F078F924
:100A5000A168C3F82011E168C3F89410184610BDCE
:100A6000980000206C02002010B50446A06801F038
:100A70000BFD10BD10B50446A06801F074FD10BD5B
:100A800010B50446A06801F07AFD10BD8160704782
:100A9000D1E9032349690260C0E901317047006868
:100AA0007047006870474361C0E903127047000057
:100AB00010B5044604EB440000EB0410114901EBAF
:100AC000400090F82400D8B90F4951F8240004F0F0
:100AD00039FF04EB440101EB04110A4A02EB410126
:100AE000C88304EB440000EB0410114601EB400006
:100AF000C08B04EB440101EB041102EB41010882BD
:100B000010BD000094010020100000201CB5044618
:100B100000200190009004EB440000EB04102E49EB
:100B200001EB40000199016004EB440000EB04106C
:100B3000294901EB40000199416004EB440000EBBE
:100B40000410254901EB40000199C16004EB440009
:100B500000EB0410204901EB4000019901610020E5
:100B600004EB440101EB04111B4A02EB4101C88371
:100B700004EB440000EB0410114601EB4000009927
:100B8000C0F8161004EB440000EB0410114601EB12
:100B900040000099C0F81A10002004EB440101EB5A
:100BA000041102EB410108840C4951F82400002192
:100BB00002F0C2F90A4951F82400002102F0BCF900
:100BC000084951F8240004F0ECFE074951F82400CC
:100BD00002F05CFB1CBD0000940100201800002006
:100BE0001C0000201000002028000020F0B585B077
:100BF0000446454951F8240004F046FF074604F036
:100C000074FE0546414951F8240004A902F017FA80
:100C1000049800F06BFF03902946039800F08CFFC6
:100C2000029004EB440202EB0412394B03EB420244
:100C3000B2F91020BDF90830D11A364A52F8240012
:100C400002F000F9ADF8000004EB440202EB0412DC
:100C50002F4B03EB4202B2F91220BDF90A30D11A30
:100C60002D4A52F8240002F0EDF8ADF8020004EB32
:100C7000440000EB0410264901EB40000099C0F845
:100C80001610264951F824000099FFF72BFD00901B
:100C90002946009800F092FF01901C4951F8240069
:100CA000019902F005FA064604EB440000EB04103B
:100CB000174901EB40000499016004EB440000EB8C
:100CC0000410134901EB40000399416004EB440018
:100CD00000EB04100E4901EB40000299C16004EBE7
:100CE000440000EB04100A4901EB40000199C0F8F0
:100CF0001A1004EB440000EB0410054901EB40001E
:100D00000584304605B0F0BD10000020280000200A
:100D100094010020180000201C0000203C0000204E
:100D200070474169C0894FF47A7210FB02F009885C
:100D3000B0FBF1F080B270470089704701817047C5
:100D40000022A0F82421A0F8982070472DE9F04750
:100D500004460F46904699460021A4F82411012626
:100D600094F81F01B8B984F89C1084F89D100025F0
:100D700005E0002104F19E004155681CC5B2802D9C
:100D8000F7DB012184F81F11832204F19C01E06844
:100D9000FFF758FC02263046BDE8F08710B5044640
:100DA000E068FFF75DFC002184F81F1110BD10B54D
:100DB0000446002184F89310E068FFF757FC10BD4B
:100DC0002DE9F04704460F4690461E464FF00109B4
:100DD00094F8930000BB27746674002506E018F8A9
:100DE000051004F112004155681CC5B2B542F6DB8E
:100DF00004F11000FFF75BFC014604F1120081557D
:100E0000022184F89310617CCA1C04F11001E0688F
:100E1000FFF731FC4FF002094846BDE8F087F0B516
:100E20000A46002100240025002300BF3FE00126E0
:100E300006FA01F4166806EA0405A54236D11679C9
:100E4000012E02D01679022E18D186684FEA410C85
:100E5000032707FA0CF7BE43866056794F00BE4061
:100E600087683E438660868801278F40BE43868020
:100E7000878896798E40B6B23743878006684FEAF6
:100E8000410C032707FA0CF7BE43066016794F00A2
:100E9000BE4007683E430660C3684F000326BE405D
:100EA000B343D6794F00BE403343C360491C102979
:100EB000BDD3F0BDF0B5002300244D07ED0E02FABE
:100EC00005F3CE1000F1200555F826504E07F70E19
:100ED0000F26BE40B543CF1000F1200646F827503C
:100EE000CE1000F1200555F8265045EA0304CE1037
:100EF00000F1200545F82640F0BD4FF480320A434A
:100F0000C261C161C261C269C26970470246002004
:100F1000138A0B400BB1012000E0002070474FF610
:100F2000FF71016000210171022141710021817175
:100F3000C17170470AB1816100E0018570472DE9F8
:100F4000F04FD0E909B200F11805D2F8C4301E699B
:100F5000D3784FF0000A012B15D092F8993002EBAC
:100F6000C304A368247B64F3070C4FFA8CFCBCF128
:100F70007F0F7DD0348DB2F8AA60B44203D2D2F88C
:100F8000B4409C4204D2A5F806A0A1F800A074E0E9
:100F9000D2F8B8409C4275D2D2F8B040B4FBF3F31B
:100FA00013FB0CF3EB80A2F8A8A0806AD0F8C4C0B1
:100FB00090F89D40DCF81030012C4CD146799CF81B
:100FC00006404FF6FD7EA6421DD2D3F80CC00CEAB7
:100FD0000E0CC3F80CC090F89940D0F8B0C000EBEC
:100FE000C404A468BCFBF4FC90F8994000EBC40472
:100FF00094F90C4014FB0CFCDC680FFA8CFC44F0F8
:101000000204DC6023E00026B446002C1BD9DF6814
:1010100007EA0E07DF6000EBCC07D7F8088097F9E6
:101020000C70D3F80C9049F00209C3F80C90D0F87A
:10103000B0900CF1010C99FBF8F808FB07660CF076
:10104000FF0C6445E3D896FBF4F30FFA83FCA0F899
:101050009EC080F89DA0B0F99E000880BBF80A30C1
:10106000584300EB80009BF8003040001B0401E077
:1010700003E007E090FBF3F008800888A880107870
:10108000BDE8F08F4FF40040E880B2F8AC00F3E721
:1010900000F11801806AB1F9062012F5004F15D051
:1010A000B0F8A4301A44A0F8A420B0F8A620CB8849
:1010B0001A44A0F8A620CA88B0F8A8301A440B88B1
:1010C0001A440A80CA88A0F89A2004E00A88B0F876
:1010D0009A0010440880B1F9000070472DE9F041F2
:1010E000846A054600F11807D4F8C40000220221E2
:1010F0000669304605F086F900216170A170E17043
:1011000001202070398121716171A171A4F8A810AA
:1011100084F89C0084F8981084F8991084F89D1045
:10112000B4F8AA003085304605F000FB01213046B6
:1011300005F080F801220221304605F063F92846C7
:10114000BDE8F04100F0A6BA70B50D4604F0E2FB30
:101150000E4904460878002803BF0D4801220A7092
:101160000020C0F8C450A0620A48206028782146B8
:1011700004F08CFE084860600848A0600848E06001
:101180000848206108486061204670BD4901002080
:1011900050090020AD11000825140008DD100008DA
:1011A000911000083F0F0008531700082DE9F05F69
:1011B000846A002600F1180BD4F8C4504FF0010ADD
:1011C000B046D5F8109019B3012918BFBDE8F09FBB
:1011D000A179491CA171B4F8BC10B4F8BE205143E8
:1011E000B9F828204FF47A73521C5A43B1FBF2F13C
:1011F000A27989B28A4238BFBDE8F09F84F803A083
:10120000ABF8068000F046FA84F80680BDE8F09F4F
:1012100094F8A070A98E286BFFF778FE800084F800
:10122000A000A98DA86AFFF771FE94F8A01041EA0A
:10123000400084F8A000A98C286AFFF767FE94F8A4
:10124000A010084384F8A000697800296CD142F608
:10125000AA2145F2555247F6FF7307285FD2DFE80F
:1012600000F05E0E2A1C4C043A00042F08BF012631
:1012700051D0012F58D16888BE1E08444CE0052F7C
:1012800002D0032F04D04FE068880126084443E0D1
:1012900068884FF0FF3610443EE0012F02D0022F45
:1012A00004D041E068880126104435E068884FF09A
:1012B000FF36184430E0032F02D0062F04D033E06D
:1012C00068880126184427E068884FF0FF36A0F5AB
:1012D000AA40553820E0022F02D0042F06D023E088
:1012E00068880126A0F5AA40553815E068884FF0B7
:1012F000FF36A0F52850AA380EE0062F05D0052F9E
:1013000008BF4FF0FF3606D00EE068880126A0F532
:101310002850AA3800E06888A4F8A40004E07F20E0
:1013200084F89C0084F80080B4F8A400ABF80000B6
:10133000207910B394F99C0010FB06F0002822DD00
:101340006079A979884202D26079401C6071484670
:1013500005F00CF8B9F8281080B2A279A37900EB57
:10136000024213B3481C80B202FB00F1A0780028AF
:1013700018BF84F802800AD030E02079401C207128
:10138000484604F0F3FF84F89C60BDE8F09FB9F88C
:101390002800B4F8AA20904220D2B9F82800401CB6
:1013A000A9F8280084F802A018E0637833B1881CFB
:1013B00080B202FB00F184F801800FE0491C89B281
:1013C0005143B0F5AA4F09D2B9F8280030B1B9F8A5
:1013D0002800401EA9F8280084F801A094F898007D
:1013E00004EBC000816094F89C0094F8981004EB22
:1013F000C101087384F8068084F8038094F898008B
:1014000084F8990094F89800401C84F8980094F8A7
:101410009800A979884208BF84F8988084F89DA034
:10142000B1E700002DE9F04F856A406A4FF6FF787A
:10143000D5F8C44081880278438851435A4392B218
:1014400008EA420309042669904A89B0890C00F031
:10145000148101EB410C4FEA4C0C42F21077B7FBC0
:10146000FCFCA5F8BCC0E7684FF47A79B7FBF9F744
:1014700007FB0CFC4FEA1C4CA5F8AAC0D4F80CC022
:101480000CEB8C0C4FEA4C0CA2FB0C7C4FEA9C0C36
:10149000BCFBF1F1C5F8B410A5F8AC30E168012748
:1014A000A2FB01C1B0F80AC08908B1FBFCF1090434
:1014B000C5F8B010E16801EB81014900A2FB0121F0
:1014C0008908B1FBF3F1C5F8B810E168090CA5F87B
:1014D000BE104089A188B0FBF1F0401EA5F8C00005
:1014E0002F703946606903F0D3FC01214FF4FC00F2
:1014F00003F0AEFCA08C0021012804D0491C400858
:1015000089B20128FAD194F83620206AFFF7D2FC7C
:10151000A08D0021012804D0491C400889B201286F
:10152000FAD194F83720A06AFFF7C4FCA08E0021FE
:10153000012804D0491C400889B20128FAD194F846
:101540003820206BFFF7B6FC6846FFF7E8FC4FF049
:1015500000098DF806908DF807904FF0020A8DF87B
:1015600004A04FF0030B8DF805B0A08C00906946E5
:10157000206AFFF754FCA08D00906946A06AFFF72F
:101580004EFCA08E00906946206BFFF748FC304669
:1015900004F05CFE05A805F03FF9CDF81880ADF821
:1015A0001C9005A9304605F0EBF802A804F021FFD5
:1015B000ADF80890ADF80AA02089ADF8100002A996
:1015C000304604F0DFFE306A4FF6FE7108403062AC
:1015D000B06940F00300B061306A40F00100306251
:1015E000B5F8AA100122304605F041F8304604F063
:1015F00015FF0121304605F03DF84021304605F049
:1016000045F80421304605F081F80121304605F007
:101610000CF9207E8DF820008DF821B08DF82290F5
:101620008DF8237008A801F01BFBC6F8109001226A
:101630000221304604F0E6FE01221146304604F055
:10164000E1FE0021304605F071F80121304604F03A
:10165000F1FDA179002000298EBF4FF0FF3309B0C2
:10166000BDE8F08F05EBC00293601773401CC0B259
:101670008142F7D809B0BDE8F08F9621A5F8BC10DB
:10168000A421A5F8AA10024904E70000ABAAAAAA5F
:10169000809698002DE9F041866A00F11805D6F889
:1016A000C440A18E206BFFF731FC800086F8A000BB
:1016B000A18DA06AFFF72AFC96F8A01041EA40002D
:1016C00086F8A000A18C206AFFF720FC96F8A010F5
:1016D00041F25552084386F8A0006778002143F68E
:1016E000FF7346F6AA2C17B1012F12D02CE0072861
:1016F00029D2DFE800F0281B090623181E002880E5
:1017000022E060886044FAE76088A0F5D440AA38F7
:10171000F5E7082817D2DFE800F0110616090C16C5
:101720000504EEE7F0E760881044E8E760881844B5
:10173000E5E76088A0F57C50FF38E0E76088A0F519
:10174000A8505538DBE731702888A6F8A400BDE81A
:10175000F081704705F07EF834E008211A4806F061
:1017600090FD01280BD1002202211046FFF72EF92F
:101770000821154806F024FD06F0F4F922E013498B
:10178000114806F087FD28B1002201211046FFF71D
:101790001DF917E00E490C4806F07CFD90B10A488F
:1017A00006F020FF05462A4600210846FFF70EF9FD
:1017B0000488012C01D106F0CFF9022C01D106F0EA
:1017C000D1F900BFC9E7000000440040070107004D
:1017D0000501050010B504465CB12046FEF767FF21
:1017E0006278A11C895C884201D1012010BD0020D3
:1017F000FCE70020FAE7000010B54FF4005126483E
:10180000FFF784FB18B901202449087202E0002088
:10181000224908722148007A21490978884206D075
:101820001E48D0E900101F4AC2E900100AE00A224F
:1018300000231C4903C904F09DFC012802D117486C
:10184000017A41721548407A17490978884207D0D1
:101850001248407A012803D101211048817202E028
:1018600000210E4881720D48407A0F49097888425C
:1018700006D00A48407A18B901210848C17202E02E
:1018800000210648C1720548007A054908700348DE
:10189000407A0549087010BD00080048380500204E
:1018A000F8000020F0000020F900002038B50446C0
:1018B0002546686804F0CEF80090A8680099016198
:1018C00038BD10B504460121206804F055F910BD5B
:1018D00070B505462C46002D3ED0207E01283BD118
:1018E0000026207B012804D0022812D003282AD108
:1018F0001FE00020A16881F824000121606804F045
:10190000E9F8E28AB4F90E10606804F052F806466D
:101910001AE00020A16881F824000021606804F02A
:10192000D9F8E28AB4F91010606804F042F806466B
:101930000AE00120A16881F82400A068D4F8121000
:101940000161012600E000BF00BF16B10220207631
:1019500001E00320207600BF70BD10B50B460146A4
:1019600001240C73CB81CA820C764C7610BD10B565
:101970000B46014602240C730B82CA8201240C76AA
:1019800000244C7610BD10B50446206804F0AEF873
:1019900010BD70B504462546686804F075F8064623
:1019A000304603F09FFF70BD01460A46507E7047E7
:1019B00008B501460A4690680068009008BD08B561
:1019C00001460A4690684068009008BD08B5014687
:1019D0000A469068C068009008BD08B501460A46EE
:1019E00090680069009008BD014600200A46137BFC
:1019F000012B01D1B2F90E00704770B5044625469F
:101A0000686804F033F870BD10B50446206804F02F
:101A10009AF810BD01460A469068B0F91E0070475A
:101A200008B501460A469068D0F81A00009008BD33
:101A300008B501460A469068D0F81600009008BD27
:101A400030B50C4601460C604A608B6000250D7372
:101A5000CD810D82CD820D7630BD000010B50146DE
:101A6000084A1278022A09D2064A13781278521CC0
:101A7000044C2270044A02EB431000E00020C161D4
:101A800010BD0000000000205401002003B50146F5
:101A900003220A73BDF804204A82BDF806308B8207
:101AA00001220A7600224A760CBD024693685982CA
:101AB00093689982704770B50446254603212068D3
:101AC00004F05AF80646012E00D12876304670BD43
:101AD00010B504460721206804F04EF810BD70B51B
:101AE00004462546686803F0F9FF70BD014661F3BE
:101AF0000F0044F6E61211FB02F244F6E61311FB66
:101B000023F10A4411444942C913B1F5004FA8BF5B
:101B100047F6FF7104DA11F5004FB4BF054909B269
:101B200061F31F4011F5004F04BF48F2010161F35A
:101B30001F4070470080FFFF70B50546084600F063
:101B400059F82AB203B212FB03F14FEA254C0514EF
:101B50001CFB05F0081AC0131649B0F5004FA8BFCA
:101B600047F6FF7004DA10F5004FB4BF084600B224
:101B700060F30F04104E10F5004F08BF66F30F041A
:101B800012FB05F01CFB03F21044C013B0F5004F2C
:101B9000A8BF47F6FF7103DA10F5004FA8BF01B2E6
:101BA000204661F31F4011F5004F08BF66F31F4048
:101BB00070BD00000080FFFF0180FFFF10B50446EC
:101BC000084600F017F814FB00F12214031412FB6E
:101BD00003FC61444FEAE13C29466CF30F0114FB1E
:101BE00003F312FB00F0C01AC01360F31F41084654
:101BF00010BD000000F50041890911F4407C00F59A
:101C00000041C1F387121749C2F1FF0317D0BCF599
:101C1000807F1DD0BCF5007F0AD0BCF5407F18BF87
:101C2000704731F8133031F8121063F31F400DE0A4
:101C300031F8122031F8131062F31F400FE031F831
:101C4000122031F81310524262F31F40494206E05D
:101C500031F8133031F812105B4263F31F4061F327
:101C60000F0070476C9600082DE9F04104460D46C0
:101C700017469846666C3560C6F88C70C6F8888042
:101C800021462846FEF702FF204600F08FFCBDE803
:101C9000F08100002DE9F04107460D46384605F079
:101CA000FBFE06460C48007801280DDA0A48017848
:101CB0000078401C084A107001EB810000EB4110D5
:101CC000064901EB800400E00024C4F890507464DD
:101CD0003046BDE8F0810000A400002098030020F9
:101CE0002DE9F04F8BB081460F4614469A46D9F83D
:101CF000445001200A904FF0000B4FEA5718B8F1FA
:101D0000000F16D0A8F101020021484605F051FF4E
:101D100060B107F01F07D5F88C0050B1A8F101029F
:101D20000021D5F88C0005F044FF02E000270B20CD
:101D300009900C2F70D2DFE807F0E506D8E46F6F4A
:101D4000E3E2E1E0DFDE267805200990462E75D03B
:101D500026DC0E2E73D009DC72D2DFE806F04EC10D
:101D6000C15EC17E7F807C8182837D84162E7FD080
:101D700009DCA6F10F000728EED2DFE800F0769329
:101D800094B1B17778001C2E4FD004DC172E70D0A0
:101D9000182E55D16EE01D2E54D0412EF9D16AE097
:101DA000612E71D010DCA6F147001528D4D2DFE8EF
:101DB00000F07C7D979797979797639797976465BF
:101DC000666768696A977E00772E73D00CDC742E84
:101DD00024D004DC642E58D0652EDAD156E0752E5E
:101DE00066D0762E7CD164E0782E64D0792E63D0D4
:101DF0007D2E62D07E2E73D160E060780890D5F899
:101E00008C003146089A05F0D4FE31464846089ABF
:101E100005F0CFFE834666E01BE300BF62783146E3
:101E2000484605F0C6FE83465DE062780021D5F89D
:101E30008C0005F0B2FE4FF0010B54E034E013E0EB
:101E40004EE015E062780121D5F88C0005F0A5FE82
:101E50004FF0010B47E000BF00BF00BF00BF00BF55
:101E600000BF00BF00BF00BF00BF00BF00BF00BF7A
:101E700000BF00BF00BF00BF00BF00BF00BF00BF6A
:101E800000BF00BF00BF00BF00BF00BF6078A178E7
:101E900000EB0120089031464846089A05F089FE7B
:101EA000834620E000BF00BF00BF00BF00BF00BFEF
:101EB00000BF00BF00BF00BF00BF00BF6078A178B7
:101EC00000EB0120E17800EB0140217900EB01609B
:101ED000089031464846089A05F06BFE834602E0BA
:101EE0000220099000BF00BFB6E2267803200990C7
:101EF000832E08D208E094E280E258E223E20BE26B
:101F0000D4E1CAE1A4E2C3E1B00000BF7844406874
:101F1000874400000C020000260300000E020000AF
:101F20001002000028030000980200009C0200003C
:101F3000A0020000A2020000A4020000A60200000D
:101F4000A8020000AA020000AC020000AE020000DD
:101F5000B0020000B2020000B4020000B6020000AD
:101F6000B8020000BC020000BA020000BE0200007D
:101F7000C0020000C2020000C4020000C60200004D
:101F8000C802000048020000720200002A0300009C
:101F9000CA020000CC020000CE02000012020000C3
:101FA0007C0300007C0300007C0300007C03000035
:101FB0007C0300007C0300007C0300007C03000025
:101FC0007C0300007C0300007C0300007C03000015
:101FD0007C0300007C0300007C0300007C03000005
:101FE0007C0300007C0300007C0300007C030000F5
:101FF0007C0300007C0300007C0300007C030000E5
:102000007C0300007C0300007C0300007C030000D4
:102010007C0300007C030000D00200007C03000071
:102020007C0300007C0300007C0300002C03000004
:102030002E03000030030000D2020000D402000092
:10204000D6020000D8020000140200003203000093
:10205000DA020000DC020000DE020000E002000004
:10206000E2020000E4020000E6020000E8020000D4
:10207000EA020000EC020000EE020000160200007E
:10208000340300007C030000F0020000F2020000B4
:10209000F4020000F6020000F80200007C030000D9
:1020A0007C030000FA020000FC020000180200009D
:1020B0001A02000036030000380300003A03000053
:1020C0003C0300003E0300001C0200009A020000D6
:1020D0009E020000560300007C030000FE02000088
:1020E000000300001E020000400300004203000045
:1020F0004403000046030000480300004A030000B8
:102100004C0300004E030000500300005203000087
:1021100054030000200200007C03000022020000A3
:1021200000BF00BF00BF00BF00BF00BF00BF00BFB7
:1021300000BF00BF00BF3146484604F085FD08904F
:102140000898401C48B1012308AAF0212868FEF72E
:1021500037FE4FF0010B00200A909CE0D5F88C0070
:1021600080B10021D5F88C0004F05DFD08900123BA
:1021700008AAF0212868FEF723FE4FF0010B00208B
:102180000A9000BF87E0D5F88C0070B10121D5F826
:102190008C0004F048FD0890012308AAF02128686B
:1021A000FEF70EFE4FF0010B00BF74E000BF00BF52
:1021B00000BF00BF00BF00BF00BF00BF00BF00BF27
:1021C00000BF00BF00BF00BF00BF00BF00BF00BF17
:1021D00000BF00BF00BF00BF00BF00BF00BF00BF07
:1021E00000BF00BF00BF00BF00BF00BF00BF00BFF7
:1021F00000BF00BF00BF00BF00BF00BF00BF00BFE7
:1022000000BF00BF00BF00BF00BF00BF00BF00BFD6
:1022100000BF00BF3146484604F016FD08900898FC
:10222000401C48B1022308AAF0212868FEF7C8FD27
:102230004FF0010B00200A902DE000BF00BF00BF4F
:1022400000BF00BF00BF00BF00BF00BF00BF00BF96
:1022500000BF00BF00BF00BF00BF00BF00BF00BF86
:1022600000BF00BF00BF00BF00BF3146484604F0BA
:10227000EBFC08900898401C48B1042308AAF02100
:102280002868FEF79DFD4FF0010B00200A9002E048
:102290000320099000BF00BFDEE0267807200990E8
:1022A0003146484604F05EFC8346D5E0002604E053
:1022B000002001A98855701CC6B2202EF8DB00262C
:1022C00007E0D5F88800815DF01C01AA1154701C4C
:1022D000C6B21D2E04DAD5F88800805D0028F0D142
:1022E000701DD5F88810085C8DF80400F01DD5F835
:1022F0008810085C8DF8050006F10900D5F88810F3
:10230000085C8DF80600202301AAF0212868FEF75A
:1023100057FD4FF0010B9FE02079617900EB012020
:1023200086B22078617800EB0120A17800EB0140B3
:10233000E17800EB0160089032464846089904F0C5
:102340005AFC834688E004A80090217805AB06AAD1
:10235000484605F05BFBBDF9140000EB4000460069
:10236000F0B28DF81C00300A8DF81D00300C8DF88D
:102370001E00300E8DF81F00BDF81000C0B28DF8A1
:102380002000BDF81000000A8DF82100BDF81800EB
:10239000C0B28DF82200BDF8180000128DF823009D
:1023A000082307AAF0212868FEF70AFD54E02078E8
:1023B0000890E179207A01EB002080B207906078E4
:1023C000A17800EB0121E07801EB0040217900EBDE
:1023D000016005900621059890FBF1F000B206908F
:1023E0006079A17900EB012006B200964846DDE94C
:1023F0000632089905F0FEFD83462DE020786178CD
:1024000000EB012006B2A078E17800EB012000B2D9
:10241000089031464846089A05F0AAFB4FF0010B98
:102420001AE007948DF820A00C200990154907A800
:1024300004F006FC8346BBF1000F08D011490B796C
:102440000A68F0212868FEF7BBFC00200A9003E030
:1024500002E00120099000BF00BF0A9878B1BBF1EB
:10246000000F06D000231A46F0212868FEF7A8FCCA
:1024700005E0012309AAFF212868FEF7A1FC0BB0A3
:10248000BDE8F08F9C0000202DE9F04F87B0064694
:10249000756C7021304604F0D7FB069072213046EF
:1024A00004F0D2FB1FFA80FA7321304604F0CCFB13
:1024B0001FFA80FB8121304604F0C6FB80B20590F4
:1024C00000200190029003900490002401E0601C21
:1024D000C4B21D2C04DAD5F88800005D0028F6D1BE
:1024E000601DD5F888100F5CE01DD5F8881011F834
:1024F0000080801CD5F8881011F800900698019093
:102500008DF808708DF809808DF80A900AF0FF00A8
:102510008DF80B004FEA2A208DF80C000BF0FF001D
:102520008DF80D004FEA2B208DF80E000598C0B2F3
:102530008DF80F00059800128DF810000D2301AAE8
:10254000E0212868FEF73CFC07B0BDE8F08F38B505
:102550000446656C0A20009001236A46FF21286822
:10256000FEF72EFC38BD38B50446656C0820009097
:1025700001236A46FF212868FEF722FC38BD38B5E2
:102580000446656C0920009001236A46FF212868F3
:10259000FEF716FC38BD2DE9F04104460D461646FF
:1025A0001F46204600F002F8BDE8F08170B50546F0
:1025B0006C6C2068FEF71AFA802084F8840004F11D
:1025C0008403221D00212068FEF7C0FB70BD014678
:1025D000086B70470146486C70470146086C7047AD
:1025E0000146C868704701468868704701464868D8
:1025F00070470146C86B70470146486970470146FD
:10260000086870470146C869704701468869704785
:102610000146486A70470146886A70470146C86AA1
:1026200070470FB410B50446542203A92046FDF7A5
:10263000C7FD10BC5DF814FB10B501460A4A1278BC
:10264000022A0DD2084A13781278521C064C2270C6
:1026500003EB430202EBC302044B03EBC20000E0B6
:102660000020416510BD000050000020BC0100208A
:1026700010B517480078012823D101228021154880
:1026800003F0C0FE1448008828B113480088401E9B
:102690001149088004E004F007F903200E4908807E
:1026A0000E48008820B10D480088401E0B49088064
:1026B0000B48008850B10A480088401E084908802D
:1026C00004E000228021034803F09CFE10BD0000BE
:1026D0004F000020002C0140440000204600002054
:1026E0004800002070B5AAB004460D460020764987
:1026F00008707648FDF742FF7549086075497648CD
:1027000002F040FB75490860086800F0A7FC03F080
:1027100021FA73490860086803F017FA714800F05D
:10272000DBFB71490860086800F0EEFB6F497048F8
:10273000FEF70AFD6F490860086803F0E4F86E4888
:1027400003F0B8F96D4908606A4B1A68664B19685E
:102750006A4B186803F09AF9694800F0BDFB6949B3
:102760000860086800F0D0FB674800F0B5FB6749D7
:102770000860086800F0C8FB6549664802F0EEFF93
:1027800065490860554A1168634A106805F056FFAC
:10279000624800F009FC62490860624828905E487F
:1027A00000682990086828A900F014FA5E495F487B
:1027B00005F066FF5E490860484A11685C4A106887
:1027C00004F09EF95B4802F083FE5B4908600868EC
:1027D00002F076FE0020FEF799F90120514981F8B8
:1027E00024004649086803F035F912904D481299C3
:1027F00001614249086803F02DF91290BDF94A00C1
:10280000484988820020FFF729F94C4908603B4B72
:102810001A68334B1968494B1868424BFFF710F997
:102820003649086803F028F906464449002208683A
:102830003146FFF792F84148006820600020FFF71A
:10284000FBFE3F4908602848006813902D48006847
:1028500014902E4800681590002016901F480068BC
:1028600017900020189023480068199000201A90B3
:10287000224800681C901A4800681D902C48006887
:102880001E90254800681F90002020902190244829
:102890000068229000202390249025902690279075
:1028A000482216A96846FDF78BFC2549086813A93C
:1028B0000EC9FFF7B6FE22480068286001200249D1
:1028C00008702AB070BD00004F0000203893000847
:1028D0003C000020908C0008EA87000828000020B7
:1028E0000C0000207487000814000020F88F0008F6
:1028F000B89100082C000020D487000810000020A8
:102900008C87000818000020A48700081C00002005
:1029100000930008F89200082000002000950008AD
:102920003800002094010020349300081793000819
:10293000240000208C9500084000002004000020A6
:102940000800002008B54148007868B94048C07ABE
:10295000012846D13F4908703F480068FFF7ABF8AF
:1029600001203A4908703CE03848007801280BD132
:1029700040F6C4103949088000F0B6F8012830D17B
:102980000220324908702CE03048007802280BD130
:102990004FF23C603149088000F0A6F8012820D1B0
:1029A00003202A4908701CE028480078032811D128
:1029B00000202A49088000F097F8012811D1002052
:1029C0002449087024480068FFF782F800201F4956
:1029D000087006E000201F4908701F480068FFF7D4
:1029E00077F8012200231E4903C903F0C3FB58B343
:1029F00019480068FEF7CDFF00EB4000400000B230
:102A0000184908801848B0F9000000901748D0ED28
:102A1000000A174890ED000A0846B0F900300F4848
:102A2000B0F900200B480178124800F07AF91249F9
:102A300008800846B0F9000000F048F80448D0E9E2
:102A40000010074AC2E9001008BD00002201002062
:102A50003805002010010020000100201401002092
:102A60000801002016010020200100201C01002088
:102A700018010020480500201201002070B504460E
:102A80000D462CB125B10E4804600E48056001E0EA
:102A900000BFFEE701210C4800F0BEF9002000F065
:102AA00015F807480068FEF77FFF08B100BFFEE792
:102AB00003480068FEF7A8FF08B100BFFEE770BD3D
:102AC00000010020040100204805002038B504461C
:102AD000ADF80040ADF80240024800990068FEF7EA
:102AE000D5FF38BD0001002070B5002411480088D2
:102AF0001E3005B20F4800881E3806B20E48B0F9E5
:102B0000000086420DDC0C48B0F90000A84208DC49
:102B10004FF4FA720023094903C903F02BFB044662
:102B200005E00748D0E90010044AC2E90010204639
:102B300070BD0000140100201601002028010020B3
:102B40003805002070B5816800F10C048847B4F89E
:102B5000001124F81100B4F80011A4F80211491C66
:102B600089B2A4F80011802924BF0021A4F8001123
:102B70002146B4F90020B4F9025000234FF03F0C75
:102B800031F9046F2A44B1F902503344BCF1010C0D
:102B9000F6D1D118B4F9FE201144CA1701EB5261E5
:102BA000C911A4F8041170BD70B5054600F10C04FC
:102BB0004FF480712046FDF71CFB0020A4F80001B3
:102BC000A4F8020128466968BDE870400847B0F9DA
:102BD0001001704770B502680446904704F10C0577
:102BE0004FF480712846FDF704FB0020A5F8000192
:102BF000A5F8020120466168BDE870400847000062
:102C00000449087800281CBF0020704702480122B0
:102C10000A707047310100208405002000BFFEE7E4
:102C20002DE9F0412DED028BB0EE408A044600EE16
:102C3000104AB8EEC00A28EE000A10EE101A084634
:102C4000FDF7E2FA06460F463046394603F092F8A1
:102C500005462846BDEC028BBDE8F08170470000B8
:102C600070B5002100230F22C47804B3154C2468EA
:102C700004F4E064C4F5E064210AC1F10403CA402D
:102C8000447804FA03F184781440214309010E4C7E
:102C90000678A155047804F01F050124AC4005789E
:102CA0006D11AD0005F1E025C5F8004109E004789B
:102CB00004F01F050124AC40044D0678761145F858
:102CC000264070BD0CED00E000E400E080E100E093
:102CD00002490143024A1160704700000000FA05F2
:102CE0000CED00E010B5002807DA0A07140E054ABB
:102CF00000F00F031B1FD45403E00A07130E024A0F
:102D0000135410BD18ED00E000E400E0006A002854
:102D100018BFB0F904007047006A002818BF81800E
:102D200070472DE9FF4F2DED020B2DED048B81B087
:102D300004468B46F0EE408AB0EE608A149FBBF1E9
:102D4000010F5BD1DDE90901A0EB01094846B0EEB6
:102D5000680AFFF765FF8246B5EEC08AF1EE10FA09
:102D60002EDD48466168FDF7F7FB80464046FDF7DB
:102D70001CFE80464046A168FDF7EEFB8046207BA6
:102D800058B1207B012802D1A068404505DC207B9A
:102D9000022804D1A068404501DAC4F8088094ED07
:102DA000000AC0EE080AB0EE609A29EE280AB0EEDA
:102DB000409AB0EE490AA068FFF732FF064602E0EB
:102DC0000020A060002631465046FDF7C5FB00906C
:102DD000009802F0BFFF0546C4F80490AF4203DA42
:102DE0003D460120207310E07842A84203DD7D4279
:102DF0000220207309E00020207306E000202073E9
:102E00006060A06082460026002528B201B0BDECBB
:102E1000048B06B0BDE8F08F00290ED900EE101A21
:102E2000B8EE400ADFED060A80EE201A80ED001AA7
:102E3000002242608260027301E000BFFEE770473B
:102E400000007A4470B4B0F90020002402FB01F6BF
:102E5000B0F90220B0F910C0B0F91230002A04BF56
:102E60000021416014D045684A43A91805D5002DBA
:102E7000C4BF002A6FF0004103E0002DBCBF002A50
:102E80000F4982688A42A5BFC26891424260416090
:102E9000827E4168057E41FA02F246FA05F52A442F
:102EA0006245C4BFACEB0204624603DC9342C4BF7C
:102EB0009C1A1A462144416070BC10B27047000051
:102EC00001000080B0F902007047C08A7047B0F975
:102ED00000007047808A7047094B0246197808291C
:102EE00028BF002007D201EBC100DFF818C0491C41
:102EF0000CEB800019700021C0E907217047000029
:102F0000320100209C060020C1690A8802804A889C
:102F10004280002242608A688260CA68C2600A8A6F
:102F200002824A8A42828A888282CA88C2828A8AC5
:102F30000283C98A4183704741607047418070476E
:102F40000180704770B5D0F8140102688468D168B8
:102F5000D2F8162011FB02F311FB3231CA1701EB34
:102F600012410D14406805F063FB216848434FF49B
:102F7000167190FBF1F0684300EB400005494000FA
:102F800081FB00108110A1EBE070C11700EB114034
:102F9000001470BD676666667047D0F814010A6851
:102FA000026049684160704710B50446FFF728FE8B
:102FB000084A1178002903BF074901231370002133
:102FC0008C60C0F81411054901600549416005494C
:102FD000816010BD33010020BC0700209B2F00083A
:102FE000992F0008452F0008C2691047C16B084798
:102FF00070B5044600F15006002511B101290CD02E
:1030000019E0002280F85C20C1688847E06E4088A3
:10301000F081E06E408870B909E0F089002808BFAF
:10302000012508D0401E0004000CF08103D1616925
:10303000204688470125284670BD826B104770B531
:1030400082680D4600F150049047288869886082A4
:103050000844A1824042E08270BD000070B5C56E98
:10306000084A00F1500429885143090CA0F8501077
:10307000002680F85C60416888472683A8886083C2
:1030800070BD0000D076030007490246002308788F
:10309000002803BF05484FF0010C81F800C0002054
:1030A0000364C2667047000034010020C807002096
:1030B00030B4B0F850C00BB203FB0CF3D0F86CC0C6
:1030C000091400F15002BCF800C001FB0CF14900EA
:1030D000494201EB030CA1EB03030CEBDC7C03EB9B
:1030E000D3735FEA6C0C4FEA630352D5002B18DAF6
:1030F00004215180C46EACEB0301CD17248801EB91
:103100009531A40804EBA144D91703EBD13104EBAA
:1031100061434FEAEC710CEBD131A4EB614C016BD4
:1031200089E000291CDC4FF0030CA2F802C0C46E39
:10313000A1EB030C4FEAEC7524880CEB953CA4083A
:1031400004EBAC444FEAE37C03EBDC334FEAE17C75
:1031500004EB634301EBDC31A3EB614CC16A6AE031
:1031600002235380C46EACEB0103DD17248803EB0C
:103170009533A40804EBA3444FEAEC730CEBD33370
:10318000A4EB634CCB1701EBD3310CEB6143816AA9
:1031900051E0002B18DB01215180C46EACEB030120
:1031A000CD17248801EB9531A40804EBA144D9176D
:1031B00003EBD13104EB61434FEAEC710CEBD131FD
:1031C000A4EB614C416A36E0002918DC05235380EA
:1031D000C46EACEB0103DD17248803EB9533A40820
:1031E00004EBA3444FEAEC730CEBD333A4EB634C36
:1031F000CB1701EBD3310CEB6143416B1BE04FF07C
:10320000000CA2F802C0C46EA1EB030C4FEAEC75EF
:1032100024880CEB953CA40804EBAC444FEAE37C17
:1032200003EBDC334FEAE17C04EB634301EBDC317D
:10323000A3EB614C016A9480D380A2F808C0138B81
:10324000012B01D030BC0847B2F91230B2F81AC0D5
:10325000002B9388CCBF6344A3EB0C039380B2F99B
:1032600014301FFA8CFC002BD388CCBF6344A3EB33
:103270000C03D380B2F916301FFA8CFC002B138993
:10328000CCBF6344A3EB0C031381DBE7002280F87F
:103290005C20C1680847002280F85C20016908476B
:1032A000012280F85C2081690847704770B4D0F82B
:1032B0004CC0DDE90454039E2CF0030C761E4CEA4E
:1032C000060C2CF0C00C4CEA050C2CF03C0C4CEA23
:1032D000040C09290BD98569A1F10A04072604EB1E
:1032E0004404A640B543A3402B43836109E041B1A8
:1032F0004569072601EB4104A640B543A3402B4393
:103300004361501E00EB40004FF4F853400003FAB5
:1033100000F002EB4202022303EB420270BC2CEAF3
:10332000000091400843704710B4026F006FD36CE7
:10333000C06CCAB2C1F30721D0F8B800092A13D96A
:103340000A3A4FF0070C02EB420284690CFA02FCC5
:1033500024EA0C0CC0F818C0D3F8B8008369914077
:103360001943816110BC7047A2F1010C38240CEBA9
:103370004C0C04FA0CFC446924EA0C0CC0F814C090
:1033800002EB4200D3F8B820536901FA00F0184369
:10339000506110BC704700002DE9F04F006FDFF85E
:1033A0003CB495B0D0F84C904FF0020A4FF00008B2
:1033B000D9E92957D9E92B64002D7DD00121084690
:1033C00001F086FD03208DF81400A88B049004A959
:1033D000A869FDF724FDA98BA869FDF78EFD287962
:1033E000012805D0A86840280DD050282CD04DE0E9
:1033F000288A049004A9E868FDF711FD298AE86885
:10340000FDF77BFD42E0B9F8B400012103904807C5
:1034100001F03EFD3C20CDE91008CDE9128A10AA4A
:1034200041465846FDF714FA04215846039AFDF721
:103430007BFA012241465846FDF796FA01224146A1
:103440005846FDF77BF921E010200390B9F8B4004D
:1034500001210F90480701F01BFD3C20CDE9100829
:10346000CDE9128A10AA58460399FDF7F1F9042113
:1034700058460F9AFDF764FA012258460399FDF762
:1034800073FA012258460399FDF758F9ADF80C80FC
:10349000ADF80C8005E000BFBDF80C00401CADF895
:1034A0000C00BDF80C00B0F57A7FF5D3A87F012899
:1034B0001BD18DF814A000E030E0288D049004A901
:1034C000686AFDF7ACFC288D0021012804D0491C56
:1034D000400889B20128FAD195F82A20686AFDF7D8
:1034E000E9FC298D686AFDF708FDA86808906869FD
:1034F0000990286A0A90E86A08A9CDE90B804FF480
:1035000080300D90286B0E902868FDF75DF8012142
:103510002868FDF743F82868FDF772F8002F53D0AC
:103520000121084601F0D4FC03208DF81400B88B6B
:10353000049004A9B869FDF772FCB98BB869FDF76E
:10354000DCFC3879012809D1388A049004A9F8688C
:10355000FDF765FC398AF868FDF7CFFCB87F0128D4
:1035600019D18DF814A0388D049004A9786AFDF75C
:1035700056FC388D0021012804D0491C400889B22E
:103580000128FAD197F82A20786AFDF793FC398D43
:10359000786AFDF7B2FCB868089078690990386AD3
:1035A0000A90F86A08A9CDE90B804FF480300D909D
:1035B000386B0E903868FDF707F801213868FCF782
:1035C000EDFF3868FDF71CF8002E53D001210846A6
:1035D00001F07EFC03208DF81400B08B049004A948
:1035E000B069FDF71CFCB18BB069FDF786FC307942
:1035F000012809D1308A049004A9F068FDF70FFC76
:10360000318AF068FDF779FCB07F012819D18DF877
:1036100014A0308D049004A9706AFDF700FC308D71
:103620000021012804D0491C400889B20128FAD1A0
:1036300096F82A20706AFDF73DFC318D706AFDF71F
:103640005CFCB068079070690890306A0990F06A75
:1036500007A9CDE90A804FF480300C90306B0D90B3
:103660003068FCF7B1FF01213068FCF797FF306844
:10367000FCF7C6FF002C04BF15B0BDE8F08F012198
:10368000084601F025FC03208DF81400A08B04905F
:1036900004A9A069FDF7C3FBA18BA069FDF72DFC70
:1036A0002079012805D0A06840280DD050282BD0C3
:1036B0004AE0208A049004A9E068FDF7B0FB218A63
:1036C000E068FDF71AFC3FE00121B9F8B650480761
:1036D00001F0DEFB3C20CDE90E08CDE9108A0EAAF0
:1036E00041465846FDF7B4F82A4604215846FDF7EE
:1036F0001BF9012241465846FDF736F901224146A1
:103700005846FDF71BF81FE001211026B9F8B65006
:10371000480701F0BDFB3C20CDE90E08CDE9108A39
:103720000EAA31465846FDF793F82A46042158461A
:10373000FDF706F9012231465846FDF715F9012239
:1037400031465846FCF7FAFFADF80480ADF8048026
:1037500005E000BFBDF80400401CADF80400BDF852
:103760000400B0F57A7FF5D3A07F012819D18DF838
:1037700014A0208D049004A9606AFDF750FB208DF1
:103780000021012804D0491C400889B20128FAD13F
:1037900094F82A20606AFDF78DFB218D606AFDF7A1
:1037A000ACFBA068079060690890206A0990E06A05
:1037B00007A9CDE90A804FF480300C90206B0D9062
:1037C0002068FCF701FF01212068FCF7E7FE206874
:1037D000FCF716FF15B0BDE8F08F00000074004044
:1037E0002DE9F05F046F4FF000080646E76C00F12A
:1037F000500A3D6BC4F80080C4F80480C4F8088007
:1038000084F83C80286A20F0550020F4A0602862EB
:103810004B48B0604B4830627062B062F062306317
:103820007063606A2061304601F0E4F997F82A007D
:103830004FF6FD79401C400800EB0017C5F81090CA
:1038400094F83C1000204FF0010B102914D2296984
:1038500011F0020F0CD0C5F81090401C80B2B84295
:1038600006D394F83C10102902D2AAF80AB003E05B
:1038700094F83C101029EAD3304601F04EF984F850
:103880003C803148B060206A2061304601F0B2F9D6
:10389000C5F8109094F83C100020102914D2296922
:1038A00011F0020F0CD0C5F81090401C80B2B84245
:1038B00006D394F83C10102902D2AAF80AB003E00B
:1038C00094F83C101029EAD3304601F026F920681C
:1038D00000092060606800096060A0680009A060BD
:1038E0001A48B0601A4830621A4870621A48B062CA
:1038F0001A48F0621A4830631A487063606A20619F
:10390000A9694FF2F7700140A961E9690840E861CF
:10391000A0896863A089A863A089E863A96940F6C3
:1039200008000143A961E9690843E861286A40F297
:1039300055510843286284F84880BDE8F09F000094
:10394000A93A0008B3470008E13A00088D39000899
:10395000C347000853480008E14800086F490008C1
:10396000FD4900088B4A0008026F8901D06CD0F82D
:10397000B8000163016C04218160016811F0040F3B
:10398000FBD0006C80B2D0817047000070B4026F31
:103990004FF6FE73D2F84CC0DCF830C0CCF81030D3
:1039A000136CD3F880C0D3F884301FFA8CFC3D4CE4
:1039B00090F85200650C9BB2062824BF70BC70477B
:1039C000DFE800F0284F4F030328032816680CBFD8
:1039D000F61AA6EB0C0616F5004FD8BF0C8004DDD6
:1039E000B6F5004FACBF0D800E80032850680CBFA9
:1039F000A0EB0C00C01A10F5004F02DC4C8070BC2C
:103A00007047B0F5004F02DB4D8070BC70474880B6
:103A100070BC7047566805280CBFF61AA6EB0C065A
:103A200016F5004FD8BF4C8004DDB6F5004FACBF93
:103A30004D804E80052890680CBFA0EB0C00C01A8A
:103A4000B1F9022010444042B0F5004FA2BF0D80F2
:103A500070BC704710F5004FD4BF0C80088070BC5C
:103A60007047166802280CBFF61AA6EB0C0616F56E
:103A7000004FD8BF0C8004DDB6F5004FACBF0D8001
:103A80000E80022890680CBFA0EB0C00C01AB1F9A0
:103A9000002010444042B0F5004FB5DA10F5004F59
:103AA000B5DCABE70180FFFF006F4FF6FE71C26C23
:103AB000126B116190F83C10102928BF7047026802
:103AC000016CD1F880301A4402604268D1F8841049
:103AD0001144416090F83C10491C80F83C1070473C
:103AE000006F4FF6FE71C26C126B116190F83C10C2
:103AF000102928BF7047026C8168D2F880201144D9
:103B0000816090F83C10491C80F83C1070472DE90A
:103B1000F041054600F15007006F01260229C46CF0
:103B200002D003291ED028E090F84800002804BFE6
:103B300094F85C00022811D1B4F864100022206EC1
:103B4000FDF7F8F9B4F870100022E06EFDF7F2F915
:103B5000B4F87C100022A06FFDF7ECF9286F80F814
:103B600046600AE0206B416C41F480614164286F3B
:103B700080F84760286F80F8486007F11000BDE8C2
:103B8000F08100002DE9F04F82465030DAF8706085
:103B9000A5B0F46C617AD4F83090012914BF0121EA
:103BA00000210174DAF86C0000884008B081FC48FC
:103BB000416941F0400141610121606801F048F92B
:103BC00001214FF4FC0001F043F90121084601F006
:103BD0003FF9A9F18040B0F596304FF0010153D084
:103BE000480301F075F94FF0805000BF01F032FC3E
:103BF000012001F08DF9DAF870704846FD6C02F092
:103C000025FB1CA802F008FE287A1CA9401EADF86E
:103C100070002020ADF87200B8891D904FF48070BC
:103C2000ADF8780095F82A00ADF87A00484602F021
:103C3000A7FD12A802F011FD602012900120ADF83E
:103C40004C00B889002740081490288FADF8540024
:103C5000B5F84200ADF8580095F85C00012818BF8F
:103C6000ADF84E7016D012A9484602F0DDFBB5F84B
:103C70004400ADF85400B5F84E00ADF8580095F882
:103C80005C0001281AD111E04FF4006001F020F926
:103C90000020ABE70420ADF84E00B5F85E00ADF8AB
:103CA0005600B5F86600ADF85A00DCE7B5F86800D4
:103CB000ADF85600B5F87200ADF85A0012A94846A2
:103CC00002F002FCB5F85000ADF85400B5F85A0007
:103CD000ADF8580095F85C00012807D1B5F87400DC
:103CE000ADF85600B5F87E00ADF85A0012A9484666
:103CF00002F034FC702012904FF6FF701490ADF873
:103D00005470ADF8587012A9484602F06DFC0821B5
:103D1000484602F0D1FB0821484602F015FC082174
:103D2000484602F059FC0821484602F08DFC7021FB
:103D3000484602F0E1FC288D67F3070B400823900A
:103D400095F88000B84667F30F2B01280CBFD5F813
:103D500084004FF400501F9095F8A200019060F38A
:103D6000070B8021484602F061FA01228021484673
:103D700002F048FB95F89600A0B14FF0807801283A
:103D80000CBFD5F898704FF0007795F8A3006FF44A
:103D9000807160F30F2B4846C9F810100122802172
:103DA00002F030FB239840F4C8511F98084340EAC2
:103DB000080040EA0701019841EA0041CBF30720DF
:103DC00041EA00514846C9F84410102102F05EFC57
:103DD0000621484602F09AFC0121484602F02AFAE0
:103DE00006A8FDF79CF8A08A032706908DF81C70A2
:103DF00006A92069FDF713F8A18A2069FDF77DF86F
:103E0000A08B06908DF81C7006A9A069FDF707F835
:103E1000A18BA069FDF771F8A08C06908DF81C703D
:103E200006A9206AFCF7FBFFA18C206AFDF765F864
:103E3000B4F840000021012804D0491C400889B290
:103E40000128FAD194F88E20E06BFDF733F8B4F82E
:103E50004C000021012804D0491C400889B20128E7
:103E6000FAD194F88F20A06CFDF724F8B4F858002C
:103E70000021012804D0491C400889B20128FAD148
:103E800094F89020606DFDF715F806A8FDF747F847
:103E900000258DF81E508DF81F504FF002088DF848
:103EA0001C808DF81D70B4F84000069006A9E06BE8
:103EB000FCF7B5FFB4F84C00069006A9A06CFCF71F
:103EC000AEFFB4F85800069006A9606DFCF7A7FF96
:103ED000B4F84010E06BFDF710F8B4F84C10A06C8B
:103EE000FDF70BF8B4F85810606DFDF706F894F87C
:103EF0005C00012802D0022854D07CE0B4F86400B1
:103F00000021012804D0491C400889B20128FAD1B7
:103F100094F89120206EFCF7CDFFB4F870000021DA
:103F2000012804D0491C400889B20128FAD194F82C
:103F30009220E06EFCF7BEFFB4F87C00002101285F
:103F400004D0491C400889B20128FAD194F8932082
:103F5000A06FFCF7AFFFB4F86400069006A9206ECE
:103F6000FCF75DFFB4F87000069006A9E06EFCF760
:103F700056FFB4F87C00069006A9A06FFCF74FFF2F
:103F8000B4F86410206EFCF7B8FFB4F87010E06E5F
:103F9000FCF7B3FFB4F87C10A06FFCF7AEFF2AE08B
:103FA0000010024001208DF81C00B4F86400069057
:103FB00006A9206EFCF733FFB4F87000069006A93E
:103FC000E06EFCF72CFFB4F87C00069006A9A06F09
:103FD000FCF725FFB4F86410206EFCF78EFFB4F8F0
:103FE0007010E06EFCF789FFB4F87C10A06FFCF74E
:103FF00084FF8DF81C8094F8800001281DD1B4F84E
:104000008C000021012804D0491C400889B20128F5
:10401000FAD194F89420D4F88800FCF74BFFB4F858
:104020008C00069006A9D4F88800FCF7F8FEB4F8D6
:104030008C10D4F88800FCF760FF94F896000128F3
:104040001DD1B4F8A0000021012804D0491C40086B
:1040500089B20128FAD194F89520D4F89C00FCF795
:1040600029FFB4F8A000069006A9D4F89C00FCF73C
:10407000D6FEB4F8A010D4F89C00FCF73EFFA9F1DE
:104080008040B0F596304FF001010CBF01200220B6
:10409000FCF77AFC5046FFF77FF94FF0A0473764F2
:1040A000A6F844503846FCF771F917A8FCF766F9F2
:1040B00017952068CDE918051A958DF86C5017A949
:1040C0003846FCF729F901213846FCF71AFA002096
:1040D0004FF6E851401C80B28842FBD300214FF0DC
:1040E000A040FCF7EBF94FF0A040FCF7FAF900BF55
:1040F0004FF0A040FCF772F90128F9D012208DF89A
:10410000200002208DF821008DF822504FF0010888
:104110008DF8238008A8FEF7A3FD01214FF0A040F1
:10412000FCF7EEF80AA8FCF7E1F90A950B952020B8
:104130000C95CDE90D500F9510958DF844800AA986
:104140004FF0A040FCF766F9E17B94F817B08A467F
:10415000A27D4FF0A040FCF77DF9A27FE17D4FF0FA
:10416000A040FCF777F94FF0A040C06C48EA0A2065
:1041700040F0400040EA8B307062E17DE07BFA6CF9
:1041800048EA012141F0400141EA8030B062E17B20
:1041900094F81FB08A46A27D3846FCF75BF994F884
:1041A0002620E17F3846FCF755F9F86C48EA0A20EA
:1041B00040F0400040EA8B30F062E17FE07BFA6C37
:1041C00048EA012141F0400141EA80303063E17D5D
:1041D00094F81FB08A46A27F3846FCF73BF994F862
:1041E0002620E17F3846FCF735F9F86C48EA0A20CA
:1041F00040F0400040EA8B307063E07FE17DFA6C74
:1042000048EA002040F0400040EA8130B063E07BA3
:10421000F96C45EA002040F040007061E07DF96CE7
:1042200045EA002040F04000B061E07FF96C45EACB
:10423000002040F04000306201213846FCF746F98A
:10424000B6F84420022000904021CDE9011200235D
:10425000012219463846FFF729F8F864B86840F09B
:104260000800B8600021484602F0EEF94FF6FF70F2
:10427000C9F84000C9F840500821484602F0E4F966
:1042800040213846FCF7B4F80028F9D040213846E0
:10429000FCF734F8012240213846FCF7B2F8216BD4
:1042A000A1F18040B0F596300CD118208DF8200097
:1042B00004208DF821008DF822808DF8238008A835
:1042C000FEF7CEFC86F8475086F8465025B0BDE88C
:1042D000F08F016F0020024691F84730012B04BF98
:1042E000022081F8472091F84630012B04BF40F0AE
:1042F000400081F8462070472DE9F041066F0446E2
:1043000000F15007F56C90F86100D5F83080012875
:104310000CBF4348BDE8F081018811F0100FFBD0BD
:10432000018811F0100FFBD195F82A00A8F8300091
:1043300060220021404602F0B3F9012200214046EC
:1043400001F054FF95F85C00012802D0022806D045
:104350000AE004220021404601F056FF04E000225A
:104360001146404601F050FFB0894108404602F036
:10437000D7F960220421404602F092F9012204217B
:10438000404601F033FF95F85C00012802D0022876
:1043900006D00AE004221146404601F035FF04E051
:1043A00000220421404601F02FFFB0894108404619
:1043B00002F0B8F960220821404602F071F90122AA
:1043C0000821404601F012FF95F85C00012802D058
:1043D000022806D00AE004220821404601F014FF1A
:1043E00004E000220821404601F00EFFB089410898
:1043F000404602F099F97021404602F07DF9002113
:104400004FF0A040FCF74FF80648A0600648A061B6
:10441000064820610648E06000207874BDE8F0811D
:10442000002C01408D390008C34C0008F54B0008F2
:104430001B4B00082DE9F047076F044600F15008B8
:10444000FE6C90F861004FF00109356B002861D1D6
:1044500060220021284602F023F90122002128468B
:1044600001F0C4FE00221146284601F0CDFE0021D5
:10447000284602F055F996F85C00012802D002287F
:1044800010D01EE010220421284602F009F9002273
:104490000421284601F0AAFE04221146284601F014
:1044A000B3FE0EE020220421284602F0F9F8012292
:1044B0000421284601F09AFE00220421284601F03A
:1044C000A3FE70220821284602F0EAF80022082103
:1044D000284601F08BFE00220821284601F094FEB8
:1044E0002021284602F008F9F17DB27F0D464FF0F9
:1044F000A040FBF7AFFF01214FF0A040FBF7D3FF37
:104500004FF0A040C06C49EA052040F0400040EA6E
:104510008530F8610548A0600548A0610548206124
:104520000548E06088F81190BDE8F0877D450008F7
:1045300059470008AD460008D145000810B4026F85
:10454000D36C948961431B6B090CA0F85410D1699A
:10455000126CD164B0F854105963196911F001015B
:1045600018BF0121B0F85A20012A03D101210022ED
:10457000A0F85A2010BC08467047000010B4006F25
:104580004FF6FE72C36C1B6B1A614368006CD0F867
:104590008020DFF838C09A1A47F6FF746245D8BF0A
:1045A000624603DDA242A8BF47F6FF7212B2D0F8FE
:1045B0008400181A6045D8BF604603DDA042A8BF3A
:1045C00047F6FF700A80488010BC70470180FFFFEB
:1045D00070B5046F84B0E66C94F84800356B012820
:1045E00019D0686C20F48060686496F85C0002283A
:1045F00011D1B6F864100022306EFCF79BFCB6F8BF
:1046000070100022F06EFCF795FCB6F87C100022CA
:10461000B06FFCF78FFC686C20F400406864206C7D
:10462000416821F040014160206C816841F0200127
:104630008160B4F84420402102200292CDE90001BB
:10464000002301221946206CFEF730FE216CC8645D
:10465000206C816841F0080181600021284601F04A
:10466000F3FFE86948F6FF710840E861E86940F443
:10467000E040E8614FF6FF702864002028640821BC
:10468000284601F0E1FF4021206CFBF7B1FE002835
:10469000F9D04021206CFBF731FE206C04B00122E0
:1046A000BDE870404021FBF7ACBE000070B5026F62
:1046B0002848D46C256B018811F0100FFBD10188BC
:1046C00011F0100FFBD00020288601206863116CC8
:1046D000D069C8644FF6FE7028610121284601F0B8
:1046E00048FE0028F9D0686C40F480606864686C0B
:1046F00040F40040686494F85C00022818BF70BD64
:10470000286A40F255510842B4F86410206E10D067
:104710000122FCF70FFCB4F870100122E06EFCF7E8
:1047200009FCB4F87C10A06FBDE870400022FCF7D3
:1047300001BC0022FCF7FEFBB4F870100022E06E12
:10474000FCF7F8FBB4F87C10A06FBDE870400022C5
:10475000FCF7F0BB002C014070B5006FC46C00206A
:10476000256B68630121284601F05CFD0121284684
:1047700001F0FFFD0028F9D0686C40F40040686447
:1047800094F85C00022818BF70BDB4F864100122D0
:10479000206EFCF7CFFBB4F870100022E06EFCF73F
:1047A000C9FBB4F87C10A06FBDE870400022FCF794
:1047B000C1BB016FCA6C8989126B491E116400F07C
:1047C000AFBA2DE9F003016FB0F8546000F1500C5E
:1047D0008A89CD6C931B1FFA83F8AB8D2F6B98459C
:1047E00013D9BCF80640141BA4B29C420DD9BCF8E6
:1047F0000840141BA4B29C4207D9521E3A640422FA
:10480000A0F852204A6A0A611FE04C6B984584BFA9
:10481000521E93B217D8BCF806C0A6EB0C0C1FFAB8
:104820008CFCBCEB480F84BFEA8DB21A0AD8334423
:104830009BB2934207D324F0C00CC3EB42024CF06E
:104840008004521E93B20C613B64BDE8F00300F09B
:1048500067BA2DE9F003026FB0F8548000F15006FA
:104860009189D56CA1EB08031FFA83F9B0F8563093
:10487000B5F82CC0CC1A2F6BA4B2E14588BF6445B3
:104880000CD936898E1BB6B2664507D9491E3964E4
:104890000421A0F85210516A11611DE0D66A6445E6
:1048A00084BF491E8BB215D8A3EB08081FFA88F8FD
:1048B000B8EB440F84BFE98D591A0AD863449BB200
:1048C0008B4207D326F0C00CC3EB41014CF08006AD
:1048D000491E8BB216613B64BDE8F00300F020BABC
:1048E0002DE9F003026FB0F8543000F150069189C1
:1048F000D56CCB1A9FB2B0F85630B5F82CC0CC1A94
:10490000D5F83080A4B2674588BF64450DD9378992
:10491000CF1BBFB2674508D9491EC8F84010042113
:10492000A0F85210516A11611DE0176B644584BFF5
:10493000491E8BB214D836899E1BB6B2B6EB440F13
:1049400084BFE98D591A0AD863449BB28B4207D3BE
:1049500027F0C00CC3EB41014CF08007491E8BB21D
:104960001761C8F84030BDE8F00300F0D9B92DE96F
:10497000F003026FB0F8543000F150069189D56C05
:10498000CB1A9FB2B0F85830B5F82CC0CC1AD5F875
:104990003080A4B267450FD9F788CF1BBFB26745F7
:1049A00088BF644508D9491EC8F840100421A0F802
:1049B0005210516A11611DE0976A644584BF491E17
:1049C0008BB214D8F6889E1BB6B2B6EB440F84BFE8
:1049D000E98D591A0AD863449BB28B4207D327F05A
:1049E000C00CC3EB41014CF08007491E8BB217612C
:1049F000C8F84030BDE8F00300F092B92DE9F003AB
:104A0000026FB0F8548000F150069189D56CA1EB8B
:104A100008031FFA83F9B0F85830B5F82CC0CC1A47
:104A20002F6BA4B2E1450ED9F6888E1BB6B266454F
:104A300088BF644507D9491E39640421A0F8521083
:104A4000516A11611DE0566A644584BF491E8BB2EC
:104A500015D8A3EB08081FFA88F8B8EB440F84BFF9
:104A6000E98D591A0AD863449BB28B4207D326F0CA
:104A7000C00CC3EB41014CF08006491E8BB216619D
:104A80003B64BDE8F00300F04BB92DE9F003016F82
:104A9000B0F8546000F1500C8A89CD6C931B1FFA5A
:104AA00083F8AB8D2F6B984513D9BCF80640141BC7
:104AB000A4B29C420DD9BCF80840141BA4B29C427D
:104AC00007D9521E3A640422A0F852204A6A0A61A9
:104AD0001FE08C6B984584BF521E93B217D8BCF868
:104AE00008C0A6EB0C0C1FFA8CFCBCEB480F84BF73
:104AF000EA8DB21A0AD833449BB2934207D324F00A
:104B0000C00CC3EB42024CF08004521E93B20C6105
:104B10003B64BDE8F00300F003B970B5046F84B0E6
:104B2000E66C94F84800356B012819D0686C20F4C5
:104B30008060686496F85C00022811D1B6F86410B1
:104B40000022306EFCF7F6F9B6F870100022F06E15
:104B5000FCF7F0F9B6F87C100022B06FFCF7EAF928
:104B6000686C20F400406864206C416821F04001CA
:104B70004160206C816841F020018160B4F84420DC
:104B8000402102200292CDE90001002301221946B2
:104B9000206CFEF78BFB216CC864206C816841F0AF
:104BA000080181600021284601F04EFDE86948F6C1
:104BB000FF710840E861E86940F4E040E8614FF6C1
:104BC000FF702864002028640821284601F03CFD7D
:104BD0004021206CFBF70CFC0028F9D04021206C10
:104BE000FBF78CFB206C04B00122BDE87040402133
:104BF000FBF707BC2DE9F041066F00F150070121DA
:104C0000F46C256B284601F00DFB0121284601F0CC
:104C1000B0FB0028F9D00121284601F003FB787C85
:104C200001281ED0B08940086863B0894008A86395
:104C3000B0894008E863B089401F286401212846F4
:104C400001F097FB0028F9D0686C40F4806068643C
:104C5000686C40F40040686494F85C00022806D058
:104C60002AE001206863316C3069C864DDE7286A96
:104C700040F255510842B4F86410206E0DD0012264
:104C8000FCF758F9B4F870100122E06EFCF752F905
:104C9000B4F87C100122A06F0CE00022FCF74AF966
:104CA000B4F870100022E06EFCF744F9B4F87C1000
:104CB0000022A06FFCF73EF9316C3069C864BDE892
:104CC000F08170B5006F0121C46C256B284601F09E
:104CD000A9FA00206863A863E8630121284601F06F
:104CE00048FB0028F9D0686C40F40040686494F8F0
:104CF0005C00022818BF70BDB4F864100122206E59
:104D0000FCF718F9B4F870100122E06EFCF712F904
:104D1000B4F87C10A06FBDE870400122FCF70AB91E
:104D20002DE9F041066F0546F06C046BB5F85400B0
:104D30006063B5F85600A063B5F85800E063206CD6
:104D4000002187B2204601F07FFC4FF6FF702064FF
:104D50000821204601F078FC2764316C3069C86472
:104D6000206910F0010018BF0120B5F85A10012980
:104D700018BFBDE8F08101200021A5F85A10BDE858
:104D8000F081000070B50D46FEF77EF91B49044620
:104D90000878002803BF1A4801220A700020C56461
:104DA000206718482060A87B214601F06FF816485C
:104DB00060601648A0601648E060164820611648FA
:104DC00060611648A0611648206216486062164865
:104DD000A0621648E06216482063164860631648D1
:104DE000A0631648E0611648E06316486064164800
:104DF000A0641648E064204670BD00004801002011
:104E0000000900200F3B0008853B00088D39000891
:104E10001B4B0008F54B0008E1370008C34C0008A5
:104E2000C347000853480008E14800086F490008DC
:104E3000FD4900088B4A0008693900082933000839
:104E4000D342000835440008F94200083D450008F7
:104E500029B1064A52690243044B5A6104E0034AED
:104E600052698243014B5A617047000000100240B2
:104E700029B1064A926A0243044B9A6204E0034A4B
:104E8000926A8243014B9A62704700000010024010
:104E900029B1064AD2690243044BDA6104E0034AAD
:104EA000D2698243014BDA61704700000010024072
:104EB00029B1064A12690243044B1A6104E0034A0D
:104EC00012698243014B1A617047000000100240D2
:104ED00029B1064A92690243044B9A6104E0034AED
:104EE00092698243014B9A617047000000100240B2
:104EF00029B1064AD2680243044BDA6004E0034A4F
:104F0000D2688243014BDA60704700000010024013
:104F10000149C86470470000000042422DE9F04397
:104F200000220026002794460025002100230024AB
:104F3000DFF80C85D8F8048008F00C0222B1042AAE
:104F400007D0082A30D109E0DFF8F884C0F80080E3
:104F50002FE0DFF8F084C0F800802AE0DFF8E0847A
:104F6000D8F8048008F47016DFF8D484D8F80480E8
:104F700008F480374FF0020808EB964627B9DFF8AF
:104F8000C88406FB08F10DE0DFF8B484D8F82C8063
:104F900008F00F0808F1010CDFF8A884B8FBFCF852
:104FA00008FB06F1016004E0DFF89884C0F8008097
:104FB00000BF00BFDFF88884D8F8048008F0F00252
:104FC0001209DFF8888418F80240D0F8008028FA27
:104FD00004F8C0F80480DFF86884D8F8048008F486
:104FE000E062120ADFF8648418F80250D0F80480F6
:104FF00028FA05F8C0F80880DFF84484D8F804805F
:1050000008F46052D20ADFF8448418F80230D0F86D
:10501000048028FA03F8C0F80C80DFF82484D8F85C
:105020002C8008F4F872120902F00F08DFF82094BF
:1050300039F8185002F01008B8F1000F05D025B16A
:10504000B1FBF5F8C0F8108003E0D0F80080C0F89C
:105050001080DFF8EC83D8F82C8008F47852520ADC
:1050600002F00F08DFF8E89339F8185002F0100842
:10507000B8F1000F05D025B1B1FBF5F8C0F81480E8
:1050800003E0D0F80080C0F81480DFF8B483D8F8CB
:10509000308008F01008B8F1100F04D0DFF8A483B6
:1050A000C0F8188003E0D0F80080C0F81880DFF85E
:1050B0009083D8F8308008F02008B8F1200F04D091
:1050C000DFF88083C0F81C8003E0D0F80080C0F8CF
:1050D0001C80DFF86C83D8F8308008F04008B8F105
:1050E000400F04D0DFF85C83C0F8208003E0D0F8E4
:1050F0000080C0F82080DFF84883D8F8308008F4BA
:105100008078B8F5807F0AD1D0F80080884506D134
:10511000A34204D14FEA4108C0F8248003E0D0F84C
:105120000C80C0F82480DFF81883D8F8308008F4A9
:105130008058B8F5805F0AD1D0F80080884506D144
:10514000A34204D14FEA4108C0F8288003E0D0F818
:105150000C80C0F82880DFF8E882D8F8308008F4A6
:105160000078B8F5007F0AD1D0F80080884506D1D4
:10517000A34204D14FEA4108C0F82C8003E0D0F8E4
:105180000C80C0F82C80DFF8B882D8F8308008F4A2
:105190008068B8F5806F0AD1D0F80080884506D1C4
:1051A000A34204D14FEA4108C0F8448003E0D0F89C
:1051B0000C80C0F84480DFF88882D8F8308008F48A
:1051C0000068B8F5006F0AD1D0F80080884506D194
:1051D000A34204D14FEA4108C0F8488003E0D0F868
:1051E0000C80C0F84880DFF85882D8F8308008F486
:1051F0000058B8F5005F0AD1D0F80080884506D184
:10520000A34204D14FEA4108C0F84C8003E0D0F833
:105210000C80C0F84880DFF82882D8F8308008F089
:105220000308B8F1000F04D1D0F80880C0F830802E
:1052300028E0DFF80C82D8F8308008F00308B8F1D5
:10524000010F04D1D0F80080C0F830801AE0DFF8F8
:10525000F081D8F8308008F00308B8F1020F04D1CB
:105260004FF40048C0F830800CE0DFF8D481D8F863
:10527000308008F00308B8F1030F03D1DFF8C481D0
:10528000C0F83080DFF8B881D8F8308008F44038B2
:10529000B8F1000F04D1D0F80880C0F8348028E0BD
:1052A000DFF89C81D8F8308008F44038B8F5803FAA
:1052B00004D1D0F80080C0F834801AE0DFF8808193
:1052C000D8F8308008F44038B8F5003F04D14FF4E6
:1052D0000048C0F834800CE0DFF86481D8F83080F2
:1052E00008F44038B8F5403F03D1DFF85881C0F8E2
:1052F0003480DFF84C81D8F8308008F44028B8F1C9
:10530000000F04D1D0F80880C0F8388028E0DFF81A
:105310003081D8F8308008F44028B8F5802F04D1C7
:10532000D0F80080C0F838801AE0DFF81481D8F88F
:10533000308008F44028B8F5002F04D14FF400481D
:10534000C0F838800CE0DFF8F880D8F8308008F436
:105350004028B8F5402F03D1DFF8E880C0F8388046
:10536000DFF8DC80D8F8308008F44018B8F1000F7E
:1053700004D1D0F80880C0F83C8028E0DFF8C08075
:10538000D8F8308008F44018B8F5801F04D1D0F860
:105390000080C0F83C801AE0DFF8A480D8F83080A4
:1053A00008F44018B8F5001F04D14FF40048C0F8C5
:1053B0003C800CE0DFF88880D8F8308008F4401892
:1053C000B8F5401F03D1DFF87C80C0F83C80DFF8DF
:1053D0007080D8F8308008F44008B8F1000F04D18C
:1053E000D0F80880C0F8408028E0DFF85480D8F872
:1053F000308008F44008B8F5800F04D1D0F8008060
:10540000C0F840801AE0DFF83880D8F8308008F41F
:105410004008B8F5000F04D14FF40048C0F84080B0
:105420000CE0DFF81C80D8F8308008F44008B8F5AC
:10543000400F03D1DFF80C80C0F84080BDE8F08356
:105440000010024000127A0000093D0068000020B0
:10545000780000200021010F052927D2DFE801F0A4
:10546000030A11181F00154A126B22F48072134BA5
:105470001A631CE0114A126B22F400720F4B1A637C
:1054800015E00E4A126B22F480620C4B1A630EE098
:105490000A4A126B22F40062084B1A6307E0074ABB
:1054A000126B22F40052054B1A6300E000BF00BFEC
:1054B000024A126B0243014B1A637047001002400C
:1054C0000021016041608160C1600121016170477C
:1054D0000B4B02461978042928BF002007D2C1EBE4
:1054E000C100DFF820C0491C0CEB800019700021BE
:1054F000016041608160C1600121C0E90412704710
:105500004A010020180A002090F87400704701EB4F
:10551000410100EB8100808A704701EB410100EB03
:105520008100B0F91600704701EB410100EB8100EA
:10553000B0F91800704701EB410100EB8100828255
:10554000704701EB410100EB8100C282704701EB23
:10555000410100EB81000283704700002DE9F14F0B
:1055600082B04FF000080298C3460C3000900298B9
:10557000C2468469D4F81490B9F80C70002F1BD976
:1055800099F800102068FDF758FDA0F57F41FF391C
:1055900010D0BAF1000F04BF0646354605D0B04220
:1055A00038BF0646A84288BF05460AF1010101F04E
:1055B000FF0A8344BA45E3D3ABEB0500801BB91E59
:1055C000B0FBF1F0009980B20880217C04EB41012E
:1055D0008880217C491CC9B221748F429CBF002164
:1055E0002174617CB9423CBF491C6174CDB2022D6B
:1055F00061D93B4A34F8040FA2FB05329208A2EBB2
:10560000820205EB420300220146B3F1010C58BFB0
:1056100066460CD4B4F800C0E0448C4538BF6146FF
:10562000844588BF6046521CA41CB242F2DD9D42F4
:105630003ADD228802EB080C8A4238BF11468242CA
:1056400088BF104634F8022F94448A4238BF11466E
:10565000824288BF104634F8022F94448A4238BFF1
:105660001146824288BF104634F8022F94448A4281
:1056700038BF1146824288BF104634F8022F944446
:105680008A4238BF1146824288BF104634F8022F42
:1056900002EB0C088A4238BF1146824288BF10468E
:1056A0009B1DA41C9D42C4DCA8EB0000401AA91E4F
:1056B000B0FBF1F080B20099488002988169C089FE
:1056C0004969CA89904288BF022004D8098A814268
:1056D0008CBF042000200099888003B0BDE8F08FC3
:1056E000ABAAAAAA00F10C0280694169CB89098A98
:1056F0001944490851800021017441747047F0B584
:105700000446806983B00F4646696846FBF707FC8C
:105710003089009003208DF8040069467068FBF71B
:105720007EFBA0690760307860F30705B07A2946F0
:1057300060F30F213846FDF757FCA0694169CB891A
:10574000098A19444908E181002101744174B08932
:1057500006289CBF03B0F0BDFEE7000010B50C4664
:1057600002F06EFF084B1978002903BF074A012198
:105770001970002254610649826101600549416047
:105780000549816010BD00004B010020880A0020FF
:10579000FF560008E55600085D5500082DE9F04168
:1057A00004460F461546274E012D00D1264E94F88B
:1057B0001F01012804D0022810D003283ED116E092
:1057C000022D0AD194F89D00002803DD022184F8FF
:1057D0001F1102E0032184F81F112FE094F89D00AF
:1057E000801CA84202D1032184F81F1126E094F8FE
:1057F0009D00C01CA84220D1144E002184F81F1126
:1058000000221349134802F023FE0521A4F82411B5
:1058100004F19C00FBF7DEFF60B10021A4F8241125
:1058200094F89D3094F89C1004F19E02A068FCF757
:1058300057FA02E0A068FCF78AFE00BF00BF3046BE
:10584000BDE8F0818E9500089095000892950008BB
:105850000501050000380140C26810472DE9F041FC
:105860000546406A2A698846867901272846904776
:10587000002804BF344600272AD0B8F900100020C1
:1058800095F822400029BABF494289B2B8F8001001
:105890006A6A53888B4238BF012093888B4288BF45
:1058A0000120B5F920100029BABF494289B2298CDC
:1058B00012898A4228BF002804D0B4423CBF601C31
:1058C000C4B202E0B44238BF0024B44208BF00278B
:1058D00085F822403846BDE8F081002180F822108A
:1058E00081680847B0F91C007047B0F9180070478C
:1058F000B0F91C10406AC1EBC131B0F9020091FB54
:10590000F0F000B27047416A097880F823104168CE
:1059100008470000094B02461978032928BF0020D8
:1059200009D201EB410000EBC100DFF814C0491CB3
:105930000CEB8000197042627047000035010020B6
:105940003C08002070B50446007800280CBFA5680C
:105950006568E068012804D9A169A0F101000D443F
:1059600005E005D160884FEA00454FF00000E06097
:105970002078012805D0E81705EB10400014A56039
:1059800070BDE81705EB104006146069FFF7AAFF29
:10599000301A01B22069FDF755FA0104C4E901513A
:1059A00070BD0178012918BF704700690021FDF71B
:1059B000C3BA70B40578D0F820C0012355B144684B
:1059C000BCF8026024148E42A4BFBCF90860B14246
:1059D00014DA11E08468E61704EB1644868B24146D
:1059E0008E4205DAB0F91E600023B1421FDA03E0EF
:1059F000B0F91E60B14209DA002318E0BCF8046077
:105A0000B142BCBFBCF906608E42F5DB92B1418069
:105A1000BCF800C00CFB02F24FF47A7CB2FBFCF243
:105A2000521C091B090491FBF2F1C260816170BC38
:105A3000184670470904012D14BF816041600021A0
:105A4000C160F3E710B504464069FFF74BFF00045F
:105A5000606010BD026A508A60F30F010846918AA7
:105A600061F31F407047006A408870474068C11763
:105A700000EB114000147047006AB0F91000704745
:105A8000006AB0F90800704740697047036AC0E9CE
:105A90000412997B0170198A09044160598A09042A
:105AA000816000214180C160816159898183998928
:105AB000C1837047054902460878002803BF04489F
:105AC00001230B70002002627047000036010020A5
:105AD000C008002001700021C160704702780021D9
